{
  "_format": "hh-sol-artifact-1",
  "contractName": "DataRegistry",
  "sourceName": "contracts/DataRegistry.sol",
  "abi": [
    {
      "anonymous": false,
      "inputs": [
        {
          "indexed": false,
          "internalType": "string",
          "name": "deviceId",
          "type": "string"
        },
        {
          "indexed": false,
          "internalType": "int64",
          "name": "temperature",
          "type": "int64"
        },
        {
          "indexed": false,
          "internalType": "int64",
          "name": "humidity",
          "type": "int64"
        }
      ],
      "name": "DataRecorded",
      "type": "event"
    },
    {
      "inputs": [
        {
          "internalType": "string",
          "name": "",
          "type": "string"
        },
        {
          "internalType": "uint256",
          "name": "",
          "type": "uint256"
        }
      ],
      "name": "readingsByDevice",
      "outputs": [
        {
          "internalType": "int64",
          "name": "temperature",
          "type": "int64"
        },
        {
          "internalType": "int64",
          "name": "humidity",
          "type": "int64"
        },
        {
          "internalType": "uint256",
          "name": "timestamp",
          "type": "uint256"
        }
      ],
      "stateMutability": "view",
      "type": "function"
    },
    {
      "inputs": [
        {
          "internalType": "string",
          "name": "deviceId",
          "type": "string"
        },
        {
          "internalType": "int64",
          "name": "_temperature",
          "type": "int64"
        },
        {
          "internalType": "int64",
          "name": "_humidity",
          "type": "int64"
        }
      ],
      "name": "recordData",
      "outputs": [],
      "stateMutability": "nonpayable",
      "type": "function"
    }
  ],
  "bytecode": "0x608060405234801561001057600080fd5b50610647806100206000396000f3fe608060405234801561001057600080fd5b50600436106100365760003560e01c8063528941981461003b57806362429c9c1461006d575b600080fd5b610055600480360381019061005091906103a8565b610089565b6040516100649392919061042f565b60405180910390f35b61008760048036038101906100829190610492565b610100565b005b60008280516020810182018051848252602083016020850120818352809550505050505081815481106100bb57600080fd5b9060005260206000209060020201600091509150508060000160009054906101000a900460070b908060000160089054906101000a900460070b908060010154905083565b6000836040516101109190610572565b908152602001604051809103902060405180606001604052808460070b81526020018360070b815260200142815250908060018154018082558091505060019003906000526020600020906002020160009091909190915060008201518160000160006101000a81548167ffffffffffffffff021916908360070b67ffffffffffffffff16021790555060208201518160000160086101000a81548167ffffffffffffffff021916908360070b67ffffffffffffffff1602179055506040820151816001015550507f46b64486e849bfac8b17be3e61c9dd064588112444916c30383fd7b879c8b26583838360405161020b939291906105d3565b60405180910390a1505050565b6000604051905090565b600080fd5b600080fd5b600080fd5b600080fd5b6000601f19601f8301169050919050565b7f4e487b7100000000000000000000000000000000000000000000000000000000600052604160045260246000fd5b61027f82610236565b810181811067ffffffffffffffff8211171561029e5761029d610247565b5b80604052505050565b60006102b1610218565b90506102bd8282610276565b919050565b600067ffffffffffffffff8211156102dd576102dc610247565b5b6102e682610236565b9050602081019050919050565b82818337600083830152505050565b6000610315610310846102c2565b6102a7565b90508281526020810184848401111561033157610330610231565b5b61033c8482856102f3565b509392505050565b600082601f8301126103595761035861022c565b5b8135610369848260208601610302565b91505092915050565b6000819050919050565b61038581610372565b811461039057600080fd5b50565b6000813590506103a28161037c565b92915050565b600080604083850312156103bf576103be610222565b5b600083013567ffffffffffffffff8111156103dd576103dc610227565b5b6103e985828601610344565b92505060206103fa85828601610393565b9150509250929050565b60008160070b9050919050565b61041a81610404565b82525050565b61042981610372565b82525050565b60006060820190506104446000830186610411565b6104516020830185610411565b61045e6040830184610420565b949350505050565b61046f81610404565b811461047a57600080fd5b50565b60008135905061048c81610466565b92915050565b6000806000606084860312156104ab576104aa610222565b5b600084013567ffffffffffffffff8111156104c9576104c8610227565b5b6104d586828701610344565b93505060206104e68682870161047d565b92505060406104f78682870161047d565b9150509250925092565b600081519050919050565b600081905092915050565b60005b8381101561053557808201518184015260208101905061051a565b60008484015250505050565b600061054c82610501565b610556818561050c565b9350610566818560208601610517565b80840191505092915050565b600061057e8284610541565b915081905092915050565b600082825260208201905092915050565b60006105a582610501565b6105af8185610589565b93506105bf818560208601610517565b6105c881610236565b840191505092915050565b600060608201905081810360008301526105ed818661059a565b90506105fc6020830185610411565b6106096040830184610411565b94935050505056fea2646970667358221220af59a86c5f1e6e9b11a547564083c2bea34d7d62630ce81acf41fee272fb849264736f6c63430008180033",
  "linkReferences": {},
  "deployedLinkReferences": {}
}